:020000040800F2
:10000000D823002001010008090100080B010008A5
:100010000D0100080F010008110100080000000098
:1000200000000000000000000000000013010008B4
:100030001501000800000000170100081901000860
:100040001B0100081B0100081B0100081B01000820
:100050001B0100081B0100081B0100081B01000810
:100060001B0100081B0100081B0100081B01000800
:100070001B0100081B0100081B0100081B010008F0
:100080001B0100081B0100081B0100081B010008E0
:100090001B0100081B0100081B010008F10A0008F1
:1000A0001B0100081B0100081B0100081B010008C0
:1000B000B123000871240008592500081B0100081D
:1000C0001B0100081B0100081B0100081B010008A0
:1000D0001B01000819290008752B00081B010008E6
:1000E0001B0100081B0100081B010008DFF80CD0F1
:1000F00000F076F800480047AD3C0008D823002007
:100100000648804706480047FEE7FEE7FEE7FEE7B1
:10011000FEE7FEE7FEE7FEE7FEE7FEE761230008F5
:10012000ED00000840EA01039B0703D009E008C97D
:10013000121F08C0042AFAD203E011F8013B00F8AC
:10014000013B521EF9D27047D2B201E000F8012BF8
:10015000491EFBD270470022F6E710B513460A4647
:1001600004461946FFF7F0FF204610BD421C10F868
:10017000011B0029FBD1801A704730B504460020CE
:10018000034600E05B1C934203D2E05CCD5C401B65
:10019000F8D030BD30B505460020034600E05B1CBA
:1001A000934205D2EC5CC85C201A01D1002CF6D138
:1001B00030BD30B50B46014600202022012409E065
:1001C00021FA02F59D4205D303FA02F5491B04FA10
:1001D00002F52844151EA2F10102F1DC30BD000039
:1001E000064C074D06E0E06840F0010394E8070084
:1001F00098471034AC42F6D3FFF77CFF6C4D0008F3
:100200008C4D000870B58C1810F8015B15F00703D1
:1002100001D110F8013B2A1106D110F8012B03E09F
:1002200010F8016B01F8016B5B1EF9D12B0705D4A7
:100230000023521E0DD401F8013BFAE710F8013BF0
:10024000CB1A921C03E013F8015B01F8015B521E0C
:10025000F9D5A142D8D3002070BD00002DE9F047A8
:1002600086B08846DDE911121F46DDE90F69CB7AB9
:100270000446002003F00F05DDF838A00EE0C0EBC7
:10028000C00303EB00130B44DB7A03F00F03AB4214
:1002900001D0022504E0401C642801DA9042EEDB24
:1002A00040F6B2011748FFF756FF65208DE881043C
:1002B0000DF10C0C43468CE8600213A1114806F1C5
:1002C000250203F0AFF90F48217800F109024170CF
:1002D00061788170A178C170E178017121794171F3
:1002E00061798171A179C171E179017212A1002056
:1002F00001F0BEFC06B006F12F01BDE8F047014851
:1003000002F0F0BE22170020613030303030303043
:10031000304150533131253034643031257325302C
:1003200033642530336425732531642530326425E8
:1003300073454E440A0000004150505F526573708F
:100340006F6E73655F42617365496E666F202573DA
:100350000A00000070B50D46044640F6B2010F4891
:10036000FFF7F9FE2A460EA10C4803F05BF90B4893
:100370002178417061788170A178C170E178017154
:100380002179417161798171A179C171E17901723C
:10039000BDE87040172102F0A5BE00002217002022
:1003A00061303030303030303041505331313030C6
:1003B00031333036253032640A0000002DE9F04137
:1003C0000D4604461E46174640F6B2011C48FFF78C
:1003D000C2FE29461A4D01291BD033463A4619A1BF
:1003E000284603F01FF9207868706078A870A0781C
:1003F000E870E0782871207968716079A871A07937
:10040000E871E07928721F21BDE8F0410C4802F044
:1004100069BE15A10A4803F005F920786870607874
:10042000A870A078E870E078287120796871607908
:10043000A871A079E871E07928721721E4E700003B
:10044000221700206130303030303030304150538E
:10045000313130303231303430302573253033642F
:10046000454E440A000000006130303030303030FA
:1004700030415053313130303133303430310A0073
:1004800070B50D46044640F6B2010F48FFF763FE13
:100490002A460EA10C4803F0C5F80B48217841709C
:1004A00061788170A178C170E17801712179417121
:1004B00061798171A179C171E1790172BDE8704002
:1004C000172102F00FBE00002217002061303030EB
:1004D00030303030304150533131303031333033BF
:1004E000253032640A00000070B50D46044640F61F
:1004F000B2010F48FFF72FFE2A460EA10C4803F069
:1005000091F80B482178417061788170A178C170B1
:10051000E17801712179417161798171A179C171AC
:10052000E1790172BDE87040172102F0DBBD0000E7
:10053000221700206130303030303030304150539D
:100540003131303031333035253032640A0000002B
:100550002DE9F04387B089460546984614460027A2
:1005600018216846FFF7F7FD002640F6B2018848DB
:10057000FFF7F1FD4846DFF81892012827D085A142
:10058000484603F04FF8297889F80110697889F80E
:100590000210A97889F80310E97889F804102979FC
:1005A00089F80510697989F80610A97989F8071082
:1005B000E97989F808104FEAE87208EB12610A0A33
:1005C00048464146827589F817101825A2E077A1A0
:1005D0006F4803F027F8297889F80110697889F8BD
:1005E0000210A97889F80310E97889F804102979AC
:1005F00089F80510697989F80610A97989F8071032
:10060000E97989F8081017216148BBE0182168468C
:10061000FFF7A1FDE07A010704D000F00F000128E8
:1006200026D06CE021680091A188ADF8041000F09C
:100630000F008DF80600A07A9DF80710C0F3400265
:100640001143C0F3800041EA40008DF80700E088C4
:100650000D27010A8DF808108DF809002089010A7C
:100660008DF80A108DF80B00607B8DF80C0046E0C9
:1006700021680091A188ADF804108DF80600A07AD9
:100680009DF80710C0F340021143C0F3800241EA15
:100690004201C0F3801241EA8201C00941EAC00070
:1006A0008DF80700E0881627010A8DF808108DF8EC
:1006B00009002089010A8DF80A108DF80B00607B73
:1006C0008DF80C00E089010A8DF80D108DF80E00F0
:1006D000208A8DF81000010A8DF80F10A07C8DF88B
:1006E0001100B4F81300010A8DF812108DF81300F0
:1006F000B4F81500010A8DF814108DF8150009EBF7
:1007000005003A466946FFF70DFD1734761C3D4457
:10071000642E02DA4645FFF679AF0A22B8F1000FDF
:100720002BDDA91F4FF47A7091FBF0F3303389F879
:100730000E30642391FBF3F393FBF2F402FB1433CA
:10074000303389F80F3091FBF2F393FBF2F402FBA4
:100750001433303389F8103091FBF2F302FB13139A
:1007600048463033437409EB0100452383714E231F
:10077000C37144230372427202E005480D21827561
:1007800003480A3102F0AEFC07B0BDE8F083000078
:10079000221700206130303030303030304150533B
:1007A000313130303133313230300000613030306F
:1007B00030303030304150533131303031333032DD
:1007C00030310A0070B503F03BF9032117A002F0A5
:1007D00089FC4FF4AF76304603F056F9144C4FF0D5
:1007E000FF35A089B8B1012212A11348FFF7C5FC5B
:1007F00088B903F025F901210EA002F073FC304600
:1008000003F042F9A089032805D303220BA10A486B
:10081000FFF7B3FC08B1284670BD09A1002001F024
:1008200027FA03F00DF9002070BD00002B2B2B00E0
:100830007000002061000000F20F00202B6F6B00A1
:100840004154203A612B6F6B0A00000010B503F091
:10085000F7F808210EA002F045FC4FF4967003F063
:1008600013F90E484FF0FF3480890A2805D303227C
:100870000BA10C48FFF781FC08B1204610BD0AA16E
:10088000002001F0F5F903F0DBF8002010BD0000B6
:1008900041542B454E544D0A0000000070000020CA
:1008A0002B6F6B00FB0F002041542B454E544D2005
:1008B0003A2B6F6B0A00000010B59AB00446642111
:1008C0006846FFF748FC03F0BBF8224617A16846CC
:1008D00002F0A8FE6A461CA1002001F0C9F9684692
:1008E000FFF744FC411C684602F0FCFB4FF47A70B1
:1008F00003F0CAF815484FF0FF3480890A280AD35C
:100900006846FFF733FC12490322084411A1401C3A
:10091000FFF733FC10B120461AB010BD0EA1002025
:1009200001F0A6F903F08CF80020F5E741542B57AD
:10093000414B45593D5750413250534B2C41455343
:100940002C25730A000000002573000070000020B1
:10095000F20F00202B6F6B0041542B57414B455930
:10096000203A2B6F6B0A000010B59AB00446642140
:100970006846FFF7F0FB03F063F8224617A16846CC
:1009800002F050FE6A461CA1002001F071F9684691
:10099000FFF7ECFB411C684602F0A4FB4FF47A70B1
:1009A00003F072F815484FF0FF3480890A280AD303
:1009B0006846FFF7DBFB12490322084411A1401CE3
:1009C000FFF7DBFB10B120461AB010BD0EA10020CE
:1009D00001F04EF903F034F80020F5E741542B57AD
:1009E00041503D313142474E2C4543555F525F25C2
:1009F000732C4175746F0A0025730000700000208D
:100A0000F20F00202B6F6B0041542B574150203ABE
:100A10002B6F6B0A0000000010B503F011F80521E0
:100A20000EA002F05FFB4FF4967003F02DF80D4816
:100A30004FF0FF348089062805D303220AA10B4812
:100A4000FFF79BFB08B1204610BD09A1002001F073
:100A50000FF902F0F5FF002010BD000041542B5AA1
:100A60000A000000700000202B6F6B00F80F0020C0
:100A700041542B5A203A2B6F6B0A000010B501F03D
:100A8000B5FA01F0A9FA022001F036FA01F0FEF9F8
:100A9000002000F022F800F015F800F0CFF8222036
:100AA00000F0B2F806210A2001F0A9F92221652000
:100AB00001F0ECFB102001F01FFABDE810401020FF
:100AC00001F01ABA10B56C2001F03CFB40F00301B4
:100AD000BDE810406E2001F0D9BB10B507216A2097
:100AE00001F0D4FB3F21BDE810406B2001F0CEBBEC
:100AF00070B5142002F0C8FF0E4C00254FF40070B2
:100B00006168012907D0064601460B4800F01AF932
:100B1000012802D009E0656008E0A268521CA260CA
:100B2000012A02DD0120A56020703046BDE870403A
:100B300000F02CB860000020000C01403EB500F031
:100B4000F3FA0121084600F087FB0921012000F09B
:100B500097F84FF40070002400908DF804400820AE
:100B60008DF8050001258DF80650684600F014F850
:100B700017208DF808008DF8094003208DF80A0031
:100B80008DF80B5002A800F013FB3EBD0149086030
:100B9000704700001404014030B51A4A8379016897
:100BA00053B313688B431360111D0B680468A34390
:100BB0000B60017911440B68046823430B60114BEF
:100BC000083319680468A14319601C1D2168056871
:100BD000A94321604179102905D011440A680068B1
:100BE00002430A6030BD1968026811431960216828
:100BF00000680143216030BD0079104402688A43D7
:100C0000026030BD000401400146682001F03EBB97
:100C100010B5692001F096FA20F00401BDE81040FB
:100C2000692001F033BB10B5692001F08BFA40F068
:100C30000401BDE81040692001F028BB10B569200F
:100C400001F080FA40F00201BDE81040692001F097
:100C50001DBB10B5692001F075FA20F00101BDE857
:100C60001040692001F012BB10B5692001F06AFA4A
:100C700040F00101BDE81040692001F007BB000011
:100C800010B58A0721F003040649120F21440F23EF
:100C90008C6893409C438C608B68904003438B60CE
:100CA00010BD000000000140F0B5CC78002204F037
:100CB0000F03E40601D58C7823430C784FF00F0C1A
:100CC00014F0FF0F4FF0010E1BD005680E880EFACE
:100CD00002F42640A64210D196000CFA06F725EA47
:100CE000070703FA06F5CE783D43282E02D0482E9A
:100CF00002D002E0446100E00461521C082AE5D3FE
:100D000005600A88FF2A1CD94468002202F10806FF
:100D10000EFA06F50E882E40AE420ED196000CFA61
:100D200006F7BC4303FA06F7CE783C43282E00D1E1
:100D30004561CE78482E00D10561521C082AE5D3C2
:100D40004460F0BD0246002092680A4200D00120B3
:100D5000704741617047016170476A2001F0F2B944
:100D60002DE9F047224D0646287810B101280DD014
:100D70001FE0082001F0C0F8FFF74AFFFFF769FF06
:100D800000F03AF80528FBD101202870DFF86490C4
:100D900000244FF400684FF4C87741464846FFF7F7
:100DA000D1FF01280BD0012002F06EFE641CBC4272
:100DB000F3DB2878022804D00020BDE8F087022069
:100DC000287001F07DF90746002404E001F078F96D
:100DD0003055641CE4B2BC42F8D3002000F0E0FDC2
:100DE0000020FFF77AFE032028703846E5E7000070
:100DF00084000020000C014010B5612001F0A2F930
:100E000000F00F0010BD000000B513A187B00EC99F
:100E10008DE80E00002103910491059120B1012875
:100E200018D0022816D110E00A21684602F05AFABA
:100E30000A2103A800F01AFE0A2203A96846FFF758
:100E40009CF910B1012007B000BD02F0A1F908B172
:100E50000220F8E70020F6E759554E454E4720415D
:100E60005053000010B50E4C40212046FFF771FF93
:100E700080212046FFF76DFF80212046FFF769FFA4
:100E80000F2000F00FF840212046FFF764FF0F20ED
:100E900000F008F82046BDE810404021FFF759BF98
:100EA000000C0140002100E0491C8142FCD3704746
:100EB00070B5124D002440212846FFF74CFF0F204B
:100EC000FFF7F0FF80212846FFF745FF01E0641C93
:100ED000E4B280212846FFF735FFC00701D0FF2C80
:100EE000F5D380212846FFF734FF40212846FFF73D
:100EF00030FFBDE870400F20FFF7D4BF000C014069
:100F000070B51A4E002540213046FFF722FF0F2012
:100F1000FFF7C8FF80213046FFF71DFF0F20FFF7C6
:100F2000C1FF80213046FFF716FF002440213046E4
:100F3000FFF711FF0F20FFF7B5FF80213046FFF7C5
:100F400001FF00F001020F20FFF7ACFF42EA45006D
:100F5000C5B240213046FFF7FCFE0F20FFF7A2FF8D
:100F6000641CE4B2082CE1D3284670BD000C01409B
:100F700070B51B4E054680213046FFF7EAFE00247F
:100F800040213046FFF7E5FE0F20FFF78BFFE80911
:100F90004FF08001304602D0FFF7DDFE01E0FFF7A1
:100FA000D8FE0F20FFF77EFF40213046FFF7D3FE2B
:100FB0000F20FFF777FF0F20FFF774FF6806050E7D
:100FC000641C082CDCD340213046FFF7C2FE802190
:100FD0003046FFF7C0FEBDE870400F20FFF762BF4C
:100FE000000C014010B50E4C80212046FFF7B1FEE9
:100FF00080212046FFF7AFFE40212046FFF7ABFEE1
:101000000F20FFF74FFF80212046FFF7A2FE0F20A1
:10101000FFF748FF2046BDE810404021FFF799BE8A
:10102000000C014010B50C4C80212046FFF791FECA
:1010300080212046FFF78DFE0F20FFF733FF402170
:101040002046FFF788FE0F20FFF72CFF2046BDE863
:1010500010408021FFF77FBE000C0140F8B5012150
:10106000082000F0F9F84020ADF800001025114EDE
:101070008DF8035003248DF8024069463046FFF78F
:1010800013FE8020ADF8000014208DF803008DF8C9
:10109000024069463046FFF707FE2020ADF8000009
:1010A0008DF803508DF8024069463046FFF7FCFD8D
:1010B000F8BD0000000C014002494CF6CC4008602D
:1010C000704700000030004002494AF6AA2008603C
:1010D0007047000000300040014948607047000040
:1010E0000030004001498860704700000030004037
:1010F00001490860704700000030004008B5012138
:10110000082000F0A9F84FF48040ADF8000004205A
:101110008DF8030003208DF8020069460148FFF7AF
:10112000C3FD08BD000C014008B50121082000F0F6
:1011300093F84FF40070ADF8000048208DF80300DC
:1011400069460248FFF7B0FD08BD0000000C0140F1
:1011500038B50121042000F07FF810208DF803003D
:1011600003208DF80200074D4FF40064ADF80040F5
:1011700069462846FFF798FD21462846FFF7EBFD14
:1011800038BD0000000801404FF400610148FFF73E
:10119000E2BD0000000801404FF400610148FFF784
:1011A000D8BD0000000801404FF4A06000F032B844
:1011B00030B50F23C27801780125F2B1144A1268C4
:1011C00001F1E02102F4E062C2F5E062120AC2F12C
:1011D0000404D3404278A24084781C401443220186
:1011E00081F80024007800F01F018D404009800044
:1011F00000F1E020C0F8005130BD01F01F00854033
:101200004809800000F1E020C0F8805130BD0000A6
:101210000CED00E0024908430249086070470000F5
:101220000000FA050CED00E0044A0029D16901D064
:10123000014300E08143D16170470000001002408B
:10124000044A0029116901D0014300E08143116182
:101250007047000000100240044A0029916901D043
:10126000014300E08143916170470000001002409B
:10127000044A0029D16801D0014300E08143D160D4
:10128000704700000010024030B5204A5168204BE2
:1012900011F00C0103D0042901D0082901D003600A
:1012A00012E05168536801F470114FF0020413F416
:1012B000803F04EB914102D053689B0301D5154B4D
:1012C00000E0134B5943016051680F2303EA1111E9
:1012D000114B5C5C0168E14041605468072505EAF8
:1012E00014241C5D21FA04F48460546805EAD424B3
:1012F0001B5DD940C1605268032303EA9232064B5A
:101300001B1F9A5CB1FBF2F1016130BD001002407D
:1013100000127A0000093D003C0000202DE9F04356
:10132000A7B00D4606461F4690460024402106A859
:10133000DDF8B890FEF70FFF402116A8FEF70BFF6F
:10134000FB208DF818008DF8190015228DF81A2051
:1013500008208DF81B0030788DF81C0070788DF80F
:101360001D00B0788DF81E00F0788DF81F003079E0
:101370008DF8200070798DF8210028788DF82200F2
:1013800068788DF82300A8788DF82400E8788DF827
:10139000250028798DF8260068798DF827008DF8CA
:1013A000288000208DF829708DF82A008DF82B00F8
:1013B0000B90032006A9D21C02E00B5C401C1C44CD
:1013C0008242FADCE01704EB1060010A8DF830105D
:1013D00020468DF83100FE208DF832008DF8330064
:1013E00000241C2106A800F021FD16A8FFF7B8FC78
:1013F0001C2865D19DF85B00D82861D19DF81C00A0
:101400009DF85C1088425BD19DF81D009DF85D1031
:10141000884255D19DF81E009DF85E1088424FD13C
:101420009DF81F009DF85F10884249D19DF820006B
:101430009DF86010884243D19DF821009DF861100D
:1014400088423DD19DF822009DF86210884237D134
:101450009DF823009DF86310884231D19DF8240047
:101460009DF8641088422BD19DF825009DF86510E9
:10147000884225D19DF826009DF8661088421FD12C
:101480009DF827009DF86710884219D19DF86A10D1
:1014900089F800109DF824009DF827309DF826203B
:1014A0009DF825108DE80F009DF823309DF822202F
:1014B00007A1002000F0DCFB012027B0BDE8F0838D
:1014C000142002F0E1FA641C012C8ADB0020F4E70E
:1014D00052464D3330305F42696E645F5569642017
:1014E0002530327825303278253032782530327800
:1014F00025303278253032780A0000002DE9F0439B
:10150000AFB00C460646002540210FA8FEF723FE8B
:1015100040211FA8FEF71FFEFB208DF83C008DF830
:101520003D0015228DF83E2000208DF83F003078D8
:101530008DF8400070788DF84100B0788DF8420049
:10154000F0788DF8430030798DF8440070798DF88B
:10155000450020788DF8460060788DF84700A07827
:101560008DF84800E0788DF8490020798DF84A0020
:10157000914E60798DF84B003068000E8DF84C006C
:101580003068000C8DF84D003068000A8DF84E0070
:1015900030688DF84F007068000E8DF8500070684C
:1015A000000C8DF851007068000A8DF852007068C8
:1015B0008DF8530003200FA9D21C02E00B5C401CE5
:1015C0001D448242FADCE81705EB1060010A8DF831
:1015D000541028468DF85500FE208DF856008DF8E1
:1015E000570000251C210FA800F020FC1FA8FFF7C2
:1015F000B7FB27287ED19DF840009DF880108842D7
:1016000078D19DF841009DF88110884272D19DF8F3
:1016100042009DF8821088426CD19DF843009DF8ED
:101620008310884266D19DF844009DF8841088425A
:1016300060D19DF845009DF8851088425AD19DF8EB
:1016400046009DF88610884254D19DF847009DF8C9
:10165000871088424ED19DF848009DF88810884236
:1016600048D19DF849009DF88910884242D19DF8E3
:101670004A009DF88A1088423CD19DF84B009DF8A5
:101680008B10884236D13068401C30609DF87F0056
:10169000D02802D0D12805D008E0E07A20F00F0051
:1016A000401C02E0E07A20F00F00E0729DF88D000F
:1016B0009DF88C1000EB012080B2E08181469DF8FE
:1016C0008F009DF88E1000EB012087B227829DF8D5
:1016D0009060A6749DF892009DF8911000EB012097
:1016E00085B2A4F813509DF894109DF8930001EB77
:1016F000002000E054E083B2A4F815309DF8960075
:101700009DF8951000EB012082B222819DF898008F
:101710009DF8971000EB012081B2E180A07A40F0A3
:101720000200A0729DF899C06CF38200A0729DF82F
:1017300099C04FEA5C0C6CF38610A0729DF899C0BA
:101740004FEA9C0C6CF3C710A0724FEAD01CC0F398
:101750008018C0F38000CDE90B10CDE90932CDE946
:101760000765CDE90D8CE17A9DF84B2001F00F0162
:10177000CDE90321CDE905979DF848009DF84A2061
:101780009DF849108DE807009DF847309DF84620E8
:101790000A49002000F06CFA01202FB0BDE8F08368
:1017A0007068401C7060142002F06EF96D1C012DF1
:1017B000FFF618AF0020F0E724020020484C000894
:1017C0002DE9F043A7B00E460746994690460025FE
:1017D000402106A82E9CFEF7BEFC402116A8FEF76D
:1017E000BAFCFB208DF818008DF8190015228DF831
:1017F0001A205A208DF81B0038788DF81C00787854
:101800008DF81D00B8788DF81E00F8788DF81F004F
:1018100038798DF8200078798DF8210030788DF8AE
:10182000220070788DF82300B0788DF82400F078CD
:101830008DF8250030798DF8260070798DF8270015
:101840008DF8288000208DF829908DF82A008DF8D9
:101850002B000B90032006A9D21C02E00B5C401C5D
:101860001D448242FADCE81705EB1060010A8DF88E
:10187000301028468DF83100FE208DF832008DF8AA
:10188000330000251C2106A800F0D0FA16A8FFF7A7
:1018900067FA1C2864D19DF85B00DE2860D19DF8B2
:1018A0001C009DF85C1088425AD19DF81D009DF8DF
:1018B0005D10884254D19DF81E009DF85E1088424C
:1018C0004ED19DF81F009DF85F10884248D19DF8C9
:1018D00020009DF86010884242D19DF821009DF8BB
:1018E000611088423CD19DF822009DF86210884228
:1018F00036D19DF823009DF86310884230D19DF8C1
:1019000024009DF8641088422AD19DF825009DF896
:101910006510884224D19DF826009DF86610884203
:101920001ED19DF827009DF86710884218D19DF8B8
:101930006800012820780AD020F0040020709DF86B
:1019400069000128607820F00F0003D003E040F028
:101950000400F3E7401C6070012027B0BDE8F0836D
:101960006D1C022D8EDB0020F7E7000038B5012149
:101970000820FFF771FC10208DF8030003208DF87C
:1019800002000120054CADF8000069462046FFF733
:101990008BF901212046FFF7DEF938BD000C01402C
:1019A00010B530B1702000F0CDFBC0F18000C0B2A6
:1019B00010BDBDE810406F2000F0C4BB2DE9F04120
:1019C00015460C46C6B2C0F30727FFF70BFBA02055
:1019D000FFF7CEFAFFF76CFA3846FFF7C9FAFFF7C0
:1019E00067FA3046FFF7C4FAFFF762FAFFF7FAFA30
:1019F000A120FFF7BDFAFFF75BFA09E0FFF780FAD5
:101A00002870012C01D9FFF72DFA641EE4B26D1C79
:101A1000002CF3D1FFF706FBBDE8F0414FF47A70DC
:101A2000FFF740BA10B530B1024602212020FFF77F
:101A3000C5FF002010BD4FF0FF3010BD10B530B114
:101A4000024606211020FFF7B9FF002010BD4FF01D
:101A5000FF3010BD10B530B1024601213020FFF734
:101A6000ADFF002010BD4FF0FF3010BD10B528B104
:101A700002460020FFF7A2FF002010BD4FF0FF300C
:101A800010BD10B548B1F82202EBC1030246062191
:101A90001846FFF793FF002010BD4FF0FF3010BD38
:101AA00010B548B1FE2202EBC103024601211846DF
:101AB000FFF784FF002010BD4FF0FF3010BD10B5C0
:101AC00048B1FF2202EBC103024601211846FFF78D
:101AD00075FF002010BD4FF0FF3010BD10B530B1C4
:101AE000024602214020FFF769FF002010BD4FF0A1
:101AF000FF3010BD10B528B102465020FFF75EFF41
:101B0000002010BD4FF0FF3010BD2DE9F0410D4613
:101B1000069C90466FF02F0621786278303901EBF1
:101B2000810106EB41010A441F46A11C2A60FEF711
:101B3000F9FA2868E11C425CA11C241D405C303885
:101B400000EB800006EB400002443A60286801196F
:101B50004046FEF7E7FA0020BDE8F08170B5154673
:101B60000E46044603220CA1FEF714FB10B14FF001
:101B7000FF3070BD601D02F099F93060607AA17A83
:101B8000303800EB80006FF02F0202EB4000084479
:101B90002860002070BD00004150530070B515460C
:101BA0000E46044603220CA1FEF7F4FA10B14FF0E2
:101BB000FF3070BD601D02F079F93060607AA17A63
:101BC000303800EB80006FF02F0202EB4000084439
:101BD0002860002070BD0000454355002DE9F0410C
:101BE000884600EB40012148154600EBC104E16A3C
:101BF00001F0030002280BD0A06A626A801A401E1E
:101C000001D5226A1044854202DD89072BD00546A2
:101C10004DB30027A06A616A461A761E01D5206A74
:101C20000644D4E90801411AB14201DC616A461A4E
:101C3000AE4200DB2E46616AE06932460844414606
:101C4000FEF770FA606A3744B044AD1B30446062FE
:101C5000606A216A884201D100206062002DD9D1DA
:101C60003846BDE8F0810020FBE70000AC01002011
:101C70000FB408B504A900916A46039900F003F86F
:101C800001B05DF814FB2DE9F04198B0804607A83B
:101C9000029040200026CDE90306CDE905681546EF
:101CA0000C4614F8011B002974D0252908D002A87D
:101CB00001F098FC05980028F3DA18B0BDE8F0812F
:101CC0000020217823291BD02B2916D02D290ED0B6
:101CD00030290FD000222178A1F130030A2B13D232
:101CE00002EB820201EB4202303A641CF3E740F05F
:101CF000010007E040F0020004E040F0040001E0D1
:101D000040F00800641CDCE70023CFB22E2F0BD17B
:101D100014F8011FA1F130070A2F05D203EB83034A
:101D200001EB4303303BF3E76C290DD068290BD05E
:101D300070294AD00BDC252914D058292BD06329CF
:101D40000CD0642911D112E014F8011BECE77329BF
:101D50002CD0752916D0782907D11CE02868011DE0
:101D60002960017802A801F03DFC641CA2E7296803
:101D70000F1D2F600968CDE900200A2202A801F09A
:101D800065FBF2E729680F1D2F600968CDE9002087
:101D90000A2207E023E029680F1D2F600968CDE9BA
:101DA0000020102202A801F0B1FBDEE72868011D27
:101DB0002960076817F8011B0029D6D002A801F096
:101DC00011FC05980028F5DACFE72868011D296085
:101DD00001680820CDE9000603461022E2E70598D5
:101DE00000287FF76AAF049820B1024607A9404651
:101DF000FFF7F4FEDDE90410084405905DE770B5D7
:101E000005460C46662000F09DF900F0E0012943EC
:101E1000662000F03BFA672000F094F900F0E00142
:101E20002143BDE87040672000F030BA70B50D4620
:101E30000646FEF7F8FE284600F0B4F8FEF714FF59
:101E4000FEF740FE022000F057F8FEF7D5FF02280B
:101E5000FBD1002404E0305D00F0D8F9641CE4B24A
:101E6000AC42F8D3402000F047F8FEF776FF082890
:101E7000FBD10020FEF731FE102000F03DF80249B2
:101E800000200870012070BD8400002070B5194842
:101E9000417804291AD2DB3000F12504A0F15B055A
:101EA000012904D002290AD003291BD00EE01149D0
:101EB00011228231FEF736F9B5F8130005E00D491D
:101EC00011229531FEF72EF9E88CA082094D0024ED
:101ED000BB352046295D00F0D9F9641CE4B2602CC2
:101EE000F7D370BD03491122A831FEF71BF9B5F8ED
:101EF0003900EAE7840000200146602000F0C6B9FE
:101F00000CB50022254800920192016841F480310D
:101F100001604FF4A063016801F400310191009960
:101F2000491C0091019911B900999942F3D10168B6
:101F3000890331D50121019119490A6842F0100243
:101F40000A600A6822F003020A600A6842F001028D
:101F50000A60416841604168416041684160416890
:101F600021F47C114160416841F4F811416001683D
:101F700041F08071016001688901FCD5416821F060
:101F800003014160416841F0020141604168C1F3D1
:101F900081010229FAD10CBD01920CBD0010024052
:101FA0000020024010B504460220FFF7A5FF45209F
:101FB00000F0C8F800F08F00C4F3022140EA0111DC
:101FC000452000F063F9E1B2462000F05FF9BDE87A
:101FD00010401020FFF790BF10B5FF217F2000F0C8
:101FE00055F9BDE81040142001F04EBD2DE9F84F21
:101FF00001210820FFF730F94FF48046ADF800606A
:102000001025DFF8B8A08DF8035003248DF80240A6
:1020100069465046FEF748FE01210820FFF71CF9EB
:102020006F02ADF800708DF803508DF802406946DC
:102030005046FEF739FE01210820FFF70DF94FF455
:102040008058ADF800808DF803508DF80240694645
:102050005046FEF729FE01210820FFF7FDF84FF456
:102060008069ADF800908DF803508DF80240694604
:102070005046FEF719FE01210820FFF7EDF8E801B0
:10208000ADF8000048208DF803008DF80240694645
:102090005046FEF709FE39465046FEF75CFE4946BB
:1020A0005046FEF758FE31465046FEF754FE414674
:1020B0005046FEF74EFEBDE8F88F0000000C0140D0
:1020C0002DE9F0410024FFF791FF1D4E4FF4806190
:1020D0003046FEF73EFEFFF711F8082001F0EAFC5B
:1020E0000025B7144FF480486006040E3946304688
:1020F000FEF72FFE022001F0DDFC39463046FEF7E8
:102100002AFE022001F0D6FC41463046FEF71AFEB8
:10211000012801D144F001046D1CEDB2082DE3D378
:1021200039463046FEF715FE042001F0C3FCFFF7E8
:102130005DFF082001F0BEFC2046BDE8F0810000F4
:10214000000C01402DE9F047002440F08007FFF724
:102150004DFF2D4E4FF400513046FEF7FAFD0220A0
:1021600001F0A8FC0025B0464FF48049B6143806AB
:102170004946404602D5FEF7EEFD01E0FEF7E9FDD7
:1021800031464046FEF7E5FD022001F093FC314662
:102190004046FEF7E0FD022001F08CFC78066D1C45
:1021A000070EEDB2082DE2D3494647464046FEF7FA
:1021B000D2FDFEF7A3FF08256006040E314638461F
:1021C000FEF7C7FD022001F075FC31463846FEF7E8
:1021D000C2FD022001F06EFC49463846FEF7B2FD12
:1021E000012801D144F001046D1E15F0FF05E3D173
:1021F00031463846FEF7ADFD022001F05BFCFFF7EB
:10220000F5FE2046BDE8F087000C01402DE9F041C5
:102210000546FFF7EBFE1C4E4FF480613046FEF79B
:1022200098FD082001F046FC00244FF48048B714C4
:1022300028064146304602D5FEF78DFD01E0FEF747
:1022400088FD39463046FEF784FD022001F032FC5D
:1022500039463046FEF77FFD022001F02BFC680670
:10226000641C050EE4B2082CE2D339463046FEF772
:1022700070FD042001F01EFCFFF7B8FEBDE8F04140
:10228000082001F017BC0000000C01402DE9F047C8
:102290000D4620F08007FFF7A9FE2A4E4FF40051AB
:1022A0003046FEF756FD022001F004FC00244FF4F6
:1022B00080494FF4805838064946304602D5FEF72B
:1022C0004AFD01E0FEF745FD41463046FEF741FD7F
:1022D000022001F0EFFB41463046FEF73CFD0220B4
:1022E00001F0E8FB7806641C070EE4B2082CE2D388
:1022F0000024474628064946304602D5FEF72BFD06
:1023000001E0FEF726FD39463046FEF722FD0220A9
:1023100001F0D0FB39463046FEF71DFD022001F0EA
:10232000C9FB6806641C050EE4B2082CE2D33946EA
:102330003046FEF70EFD022001F0BCFBBDE8F04781
:10234000FFF754BE000C01404FF0E021042808695B
:1023500003D020F004000861704740F00400FAE761
:102360000F4810B5016841F00101016041680D4A54
:102370001140416001680C4A11400160016821F47C
:1023800080210160416821F4FE0141604FF41F018A
:102390008160FFF7B5FD05494FF00060086010BD92
:1023A000001002400000FFF8FFFFF6FE08ED00E01D
:1023B00070B501218C07204600F041F9002820D09B
:1023C0000121204600F02EF90E4C01250026A068C0
:1023D000401CA060A570E670207901280BD16079BF
:1023E00028B10020607120B1FEF7D6FE03E0012085
:1023F000F8E7FEF7C9FE0449A068884201DD657070
:10240000A66070BDA0010020805101007FB50D467F
:10241000044601210846FEF707FFADF80440ADF879
:10242000005000244FF08045ADF80640ADF8024062
:102430006946284600F018F901221146284600F0A6
:102440000AF91C208DF80C0001218DF80D100320D5
:102450008DF80E008DF80F1003A8FEF7A9FE0121DC
:10246000284600F0E2F8014884707FBDA0010020FA
:1024700010B5104C0121204600F0E1F8002817D0DB
:102480000121204600F0CEF80B490878401C40B2EC
:10249000087001280CDD09A10020FFF7E9FB0C49B9
:1024A000002008700B490880BDE8104000F014B807
:1024B00010BD000000040040A001002054494D332D
:1024C0005F49525148616E646C65720A00000000F9
:1024D000730000207C0000200349002008700146A2
:1024E000024800F0A2B80000A00100200004004053
:1024F0007FB50D46044601210220FEF795FEADF89A
:102500000440ADF800500024114DADF80640ADF880
:1025100002406946284600F0A7F8012211462846E5
:1025200000F099F81D208DF80C0001218DF80D1098
:1025300003208DF80E008DF80F1003A8FEF738FE6B
:102540000121284600F071F8024804707FBD0000A8
:1025500000040040A001002010B50E4C01212046CF
:1025600000F06DF8002814D00121204600F05AF840
:1025700009498879401C40B28871012809DD074962
:1025800002200870064900200880BDE8104000F0D5
:1025900009B810BD00080040A00100207100002013
:1025A000740000200349002088710146024800F0B1
:1025B0003CB80000A0010020000800407FB50D4697
:1025C000044601210420FEF72FFEADF80440ADF8CB
:1025D00000500024114DADF80640ADF802406946A8
:1025E000284600F041F801221146284600F033F851
:1025F0001E218DF80C108DF80D4003208DF80E0073
:1026000001208DF80F0003A8FEF7D2FD0121284616
:1026100000F00BF8024884717FBD00000008004004
:10262000A0010020C943018270470029018802D01F
:1026300041F0010101E021F00101018070470246F3
:102640000020138A92890B4202EA010202D0002A7A
:1026500000D001207047002A828901D00A4300E09F
:102660008A4382817047000030B502881B4C1C4DA4
:10267000A0420DD0A8420BD0B0F1804F08D0194B2A
:10268000984205D0184B984202D0184B984203D17B
:1026900022F070034A881A43154B984206D0154B16
:1026A000984203D022F44073CA881A4302808A8871
:1026B00082850A880285A0420AD0A84208D00E4A24
:1026C000904205D00D4A904202D00D4A904201D16D
:1026D000097A01860121818230BD0000002C014071
:1026E000003401400004004000080040000C00409D
:1026F0000010004000140040004001400044014030
:10270000004801402DE9F0410E4607460024DFF85D
:1027100028800BE03D5D4021404600F08FFA002804
:10272000F9D02946404600F021FB641CB442F1DB9D
:102730002046BDE8F0810000003801402DE9F04757
:10274000724C0025824625816078714E022741F641
:102750001F49022825D028E0FFF724FFA0882189FF
:10276000401A80B26081012806D0022808D00328D0
:102770000DD005281DD00DE03078452803D109E0A3
:102780007078432806D0A5802581677002E0B07874
:102790005528F8D149469520FFF710FF2089401CA5
:1027A00020812089A1888842D6D36078032817D059
:1027B0001AE00320607049469520FFF7FFFEF4E71A
:1027C000FFF7F0FEA0882189401A80B260810928B5
:1027D0000ED049469520FFF7F1FE2089401C20814C
:1027E0002089A1888842EBD36078042824D027E090
:1027F000701D01F05BFBE08004206070494695206D
:10280000FFF7DCFEF0E7FFF7CDFEA0882189401A34
:1028100080B26081E188C91E814206D105206070C6
:1028200049469520FFF7CAFE0AE049469520FFF782
:10283000C5FE2089401C20812089A1888842E2D3DE
:102840006078052860D1A046B8F80800B8F80410F0
:10285000884259D2FFF7A6FEB8F80400B8F808106D
:10286000401A80B2A8F80A00B8F80640A11E8142BA
:102870000AD1311911F8031C452905D0A8F80450D4
:10288000A8F8085088F80170611E81420AD13119F8
:1028900011F8021C4E2905D0A8F80450A8F80850D9
:1028A00088F80170844225D1A0B2304410F8010CA0
:1028B000442805D0A8F80450A8F8085088F80170FA
:1028C000C8211448FDF747FC4646224610491148E6
:1028D000FDF728FCF0880F49CAF800000D540120CC
:1028E00030707770B58035814946BDE8F047952056
:1028F000FFF764BE49469520FFF760FEB8F8081060
:10290000491CA8F808109FE7BDE8F0877000002078
:102910002A0F0020420B002010B50B4C40F225512D
:10292000204600F092F900280DD0204600F01AFA57
:10293000074A064B91885854491C88B29080C82891
:1029400001D30020908010BD003801402A0F0020E4
:102950007000002010B59AB0044664216846FDF767
:10296000FAFB224607A1684600F05CFE6A460AA10F
:102970000020FFF77DF910216846FFF7C3FE1AB06B
:1029800010BD0000454355313130303136303525EA
:10299000303264454E4400005553415254315F5229
:1029A0006573706F6E73655F464143544F52592093
:1029B00025730A0030B599B00D4604466421684677
:1029C000FDF7C9FB7CB122460AA1684600F02AFE49
:1029D0006A4610A10020FFF74BF91C216846FFF75B
:1029E00091FE19B030BD2B46224611A1684600F079
:1029F00019FEEDE74543553131303032383032255C
:102A0000303264303030303030303030303030457B
:102A10004E4400005553415254315F526573706FFC
:102A20006E73655F524541445F49442025730A0037
:102A3000454355313130303238303225303264251B
:102A400073454E440000000010B59AB0044664215E
:102A50006846FDF780FB224607A1684600F0E2FDCC
:102A60006A460AA10020FFF703F910216846FFF724
:102A700049FE1AB010BD00004543553131303031A8
:102A800036303125303264454E44000055534152B2
:102A900054315F526573706F6E73655F5345545F59
:102AA00049442025730A000010B59AB004466421F9
:102AB0006846FDF750FB224607A1684600F0B2FDCC
:102AC0006A460AA10020FFF7D3F810216846FFF7F5
:102AD00019FE1AB010BD0000454355313130303178
:102AE00036303425303264454E440000555341524F
:102AF00054315F526573706F6E73655F5345545FF9
:102B00004E4554574F524B2025730A0030B599B0AB
:102B10000C46054664216846FDF71DFB23462A4600
:102B200007A1684600F07EFD6A460BA10020FFF772
:102B30009FF812216846FFF7E5FD19B030BD00008F
:102B4000454355313130303138303325303264250A
:102B5000303264454E4400005553415254315F5267
:102B60006573706F6E73655F544553542025730A07
:102B70000000000010B50C4C40F22551204600F03A
:102B800064F800280ED0204600F0ECF8084A074B05
:102B900091895854491C88B29081B0F5487F01D37F
:102BA0000020908110BD000000440040F20F002082
:102BB000700000200029818902D041F4005101E019
:102BC00021F4005181817047174910B588420AD11C
:102BD00001218C032046FEF74BFB2046BDE8104048
:102BE0000021FEF745BB1149884202D101214C0466
:102BF00010E00F49884202D101218C040AE00D49FE
:102C0000884202D10121CC0404E00B4988420AD158
:102C100001210C052046FEF713FB2046BDE81040BD
:102C20000021FEF70DBB10BD0038014000440040FC
:102C300000480040004C0040005000400246002088
:102C400012880A4200D00120704770B501F01F05BC
:102C500001260024C1F3421306FA05F2012B0FD01E
:102C6000022B0FD0838A4FEA11210088134206FA03
:102C700001F600EA060001D000B10124204670BD33
:102C80008389F0E7038AEEE710B5C1F3421301F040
:102C90001F040121A140012B07D0022B07D01430C3
:102CA000002A026805D00A4304E00C30F8E710302F
:102CB000F6E78A43026010BD30B50446008A85B04D
:102CC0000D464CF6FF710840E98801432182A08936
:102CD0004EF6F3110840A9882A8911436A890243F4
:102CE0001143A181A08A4FF6FF410840A989014301
:102CF000A1826846FEF7C8FA1948844201D10398B8
:102D000000E00298A189090400EBC00101EB00106A
:102D1000296801D5490000E08900B0FBF1F0642288
:102D2000B0FBF2F109010B096FF018056B4300EBE2
:102D30008300A3891D044FF0320306D503EBC000C6
:102D4000B0FBF2F000F0070005E003EB0010B0FB71
:102D5000F2F000F00F000843208105B030BD000004
:102D6000003801408088C0F308007047C1F30801B3
:102D70008180704770B506460024C82000F084FEAC
:102D8000FDF720FD10B1641C032CF6DB4FF0FF357E
:102D9000401C35D0C82000F077FE0024C82000F089
:102DA00073FE3046FDF788FD10B1641C032CF5DB83
:102DB000401C4FF0000409D1C82000F065FEFDF76B
:102DC00045FDE8B1641C032CF6DB19E0C82000F0D7
:102DD0005BFEFDF721FE002811D0641C032CF5DBFF
:102DE0000024C82000F050FEFDF730FD10B1641C37
:102DF000032CF6DB401C03D000F060F9002070BD0E
:102E0000284670BD70B506460024C82000F03CFE80
:102E1000FDF7D8FC10B1641C032CF6DB4FF0FF3536
:102E2000401C15D0C82000F02FFE0024C82000F060
:102E30002BFE3046FDF798FD1EA0FDF73DFD10B1BD
:102E4000641C032CF2DB401C4FF000040BD014E098
:102E50000024C82000F018FEFDF7F8FC38B3641C0D
:102E6000032CF6DB23E0C82000F00EFEFDF7EEFC9D
:102E7000E8B1641C032CF6DB19E0C82000F004FE66
:102E8000FDF7CAFD002811D0641C032CF5DB0024DB
:102E9000C82000F0F9FDFDF7D9FC10B1641C032C2B
:102EA000F6DB401C03D000F009F9002070BD284675
:102EB00070BD000038383838383838380000000025
:102EC0002DE9F0477A4E8246002737823046F37864
:102ED000784C82890D464FF001093BB109E0111A87
:102EE00089B27182012907D0401C3082308A904219
:102EF000F5D3012B30D033E0207861287AD102203D
:102F000000F0C2FD86F8039026E0022801D1607827
:102F10002870308A032801D1A0786870308A04288C
:102F20000AD005280BD006280CD007280DD0082879
:102F30000ED0092818D00DE0E178A9700AE02179B7
:102F4000E97007E06179297104E0A179697101E014
:102F5000E179A971401C3082308AB1898842D4D38A
:102F6000F078022804D027E0207AE8710220F0707F
:102F700094F809C0A57AE37AB289318A91421BD2CA
:102F8000501A80B270820A2806D00B2808D00C286C
:102F900009D00E280AD00CE0BCF1410F55D108E051
:102FA000502D52D105E0532B4FD102E00320F07099
:102FB00021E0491C3182E0E7F07803281BD01EE0B5
:102FC000111A89B27182122902D0401C308213E09A
:102FD00038480E3000F06AFF0930F0810420F070AC
:102FE0000A2000F051FD41F61F4140F22B10FFF77F
:102FF0007FFA04E029E0B289308A9042E0D3F37886
:10300000042B0ED13782F189B289C91E06E08142B4
:1030100002D10520F07006E0401C3082308A9042D8
:10302000F5D3052B14D13782F589B389A5F1020CAC
:10303000A5F10108621936E0581A80B27082844501
:1030400008D112F8034C452C04D0B7813782F770B1
:10305000BDE8F087804503D112F8024C4E2CF4D124
:1030600085421ED112F8010C4428EED14FF448716C
:103070001148FDF770F80F49A5F1090209310E4812
:10308000FDF750F8F0890C490938CAF800000F54D0
:1030900086F80290F770B7813782BDE8F047FFF7F6
:1030A0001BBA491C3182318A9942C5D3D0E700004E
:1030B00070000020F20F00200A0C002070B5084DAF
:1030C0004FF4004421462846FDF743FE4FF47A7042
:1030D00000F0DAFC21462846FDF73DFE002070BDD9
:1030E000000C01402DE9F0410E4607460024DFF8B0
:1030F00028800BE03D5D40214046FFF79FFD002802
:10310000F9D029464046FFF731FE641CB442F1DB9A
:103110002046BDE8F08100000044004070B5002466
:10312000C82000F0B1FCFDF74DFB10B1641C032C6E
:10313000F6DB4FF0FF35401C1BD0C82000F0A4FC8C
:103140000024C82000F0A0FCFDF766FC00280FD08A
:10315000641C032CF5DB0024C82000F095FCFDF76F
:1031600075FB10B1641C032CF6DB401C0DD0002055
:1031700070BD0024C82000F087FCFDF767FB10B18C
:10318000641C032CF6DB284670BDFFF797FFFAE7B7
:1031900070B50024C82000F077FCFDF713FB10B1D8
:1031A000641C032CF6DB4FF0FF35401C4FF000048D
:1031B0000AD1C82000F068FCFDF748FB00280ED0BB
:1031C000641C032CF5DB09E0C82000F05DFCFDF772
:1031D0003DFB002803D0641C032CF5DB284670BDA2
:1031E0002DE9F041DFF86C800C46C6B2C0F307272A
:1031F000154620214046FDF7ACFDFDF7F3FEA0206B
:10320000FDF7B6FEFDF754FE3846FDF7B1FEFDF7BB
:103210004FFE3046FDF7ACFEFDF74AFE07E028788A
:10322000FDF7A6FEFDF744FE641EE4B26D1C002C03
:10323000F5D1FDF7F7FE4AF6C870FDF733FE202101
:103240004046FDF788FDBDE8F0414FF47A70FDF788
:1032500029BE0000000C014038B50021044602469A
:10326000009102212020FFF7BBFF6A4602212020A7
:10327000FEF7A4FB022269462046FCF77EFF0028E9
:1032800000D0012038BD1CB5002104460091024643
:10329000019106211020FFF7A3FF6A4606211020A6
:1032A000FEF78CFB062269462046FCF766FF0028E5
:1032B00000D001201CBD38B5002104460246009113
:1032C00001213020FFF78CFF6A4601213020FEF7F4
:1032D00075FB012269462046FCF74FFF002800D00D
:1032E000012038BD3EB500220092019202920546AF
:1032F00002460C460020FFF773FF6A462146002075
:10330000FEF75CFB224669462846FCF736FF00289C
:1033100000D001203EBD7CB5054600200090019004
:10332000F82000EBC10004462A460621FFF758FFAB
:1033300020466A460621FEF741FB062269462846DA
:10334000FCF71BFF002800D001207CBD13B582B024
:1033500000208DF80000FE2000EBC100044602AA08
:103360000121FFF73DFF20466A460121FEF726FBBB
:103370000122694602A8FCF700FF002800D00120C6
:1033800004B010BD13B582B000208DF80000FF20FE
:1033900000EBC100044602AA0121FFF721FF2046ED
:1033A0006A460121FEF70AFB0122694602A8FCF7E2
:1033B000E4FE002800D0012004B010BD38B5002183
:1033C00004460246009102214020FFF709FF6A46A9
:1033D00002214020FEF7F2FA022269462046FCF75D
:1033E000CCFE002800D0012038BD3EB5002200925E
:1033F00001920292054602460C465020FFF7F0FE6D
:103400006A4621465020FEF7D9FA224669462846E8
:10341000FCF7B3FE002800D001203EBD08B5002116
:103420000091010E8DF800104FF6FF71B0FBF1F125
:103430008DF80110010A8DF802108DF803006A461C
:1034400004210A20FFF7CCFE002008BD2DE9FC5F17
:103450000E008046DDE90C47C6F100009946924611
:10346000834600D40846012502E0B0FBFAF06D1C4B
:103470005045FAD2A94500D94D4624B1002E01DBB2
:10348000780700D5641EB80702D5B9F1000F10D037
:10349000F8070ED16CB12046641EA84209D920213C
:1034A000404600F09FF8D8F80C000028F2DABDE89A
:1034B000FC9F002E02DA5E462D2102E0780707D538
:1034C0002B21404600F08EF8D8F80C000028EEDBE7
:1034D00007F00300022810D1B9F1000F0DD164B13B
:1034E0002046641EA84208D93021404600F07AF8F0
:1034F000D8F80C000028F2DAD9E7CDE900474B46AE
:1035000052463146404600F001F8D0E72DE9F84F29
:103510008246DDE90A4B012599461746884608464A
:103520002E4602E0B0FBF7F0761CB842FAD2B14565
:1035300000D94E465FEACB701AD1CCB15FEA8B70EE
:1035400002D5B9F1000F02D0202000900AE030200F
:10355000FBE75046009900F045F8DAF80C00002827
:103560003BDB2CB12046641EB042F2D800E07D4324
:10357000B8FBF5F0B84201D3012000E000204A4634
:10358000A9F10109012A01DD012100E00021084320
:10359000EDD1DFF84C90B8FBF5F000FB158819F879
:1035A0000010504600F01EF8DAF80C00002803DB8B
:1035B000B5FBF7F5002DEED15FEACB700DD0002CF6
:1035C0000BD02046641EB04207D92021504600F09F
:1035D00009F8DAF80C000028F1DABDE8F88F0000ED
:1035E0002C4C000810B50446D4E90130421C93422B
:1035F00005DB23681954A260E068401CE060D4E950
:103600000102824209D121682069FEF7E7FAA16828
:10361000884203D04FF0FF30E06010BD0020A06072
:1036200010BD00000FB4084B10B504A902AA0398FE
:1036300000F036F8044602A9002000F0D2F9204636
:1036400010BC5DF814FB0000E339000802E008C874
:10365000121F08C1002AFAD170477047002001E00C
:1036600001C1121F002AFBD1704700000B49498895
:1036700048434FF0E021486100238B61086940F026
:10368000010008610869C20701D0C003FAD50869C2
:1036900020F0010008618B61704700006C00002081
:1036A0002DE9FF4F8BB088460546002606E0252809
:1036B0000BD0DDE90D1290476D1C761C2878002890
:1036C000F5D10FB03046BDE8F08F0024A146A246E8
:1036D0000122AE4900E0044315F8013F203B02FA05
:1036E00003F00842F7D128782A2810D06FF02F0273
:1036F0002878A0F13001092915D809EB890102EBDE
:10370000410144F0020400EB01096D1CF0E758F898
:10371000041B5FEA010903D544F40054C9F1000910
:1037200044F002046D1C28782E2817D115F8010FDB
:1037300044F004042A280ED06FF02F022878A0F15C
:10374000300109290AD80AEB8A0102EB410100EB9A
:10375000010A6D1CF2E758F804AB6D1C28786C2840
:103760000FD006DC4C2817D068280DD06A2814D159
:1037700004E0742810D07A280FD10DE044F400142E
:103780000AE044F4801401E044F440146978814272
:1037900002D104F580146D1C6D1C2878692865D051
:1037A00006DC00288DD0632827D0642806D15DE090
:1037B0006E2808D073282AD0752877D0DDE90D123D
:1037C0009047761CE0E0C4F30250022809D0032899
:1037D0000DD0D8F8001004280DD00E6008F10408B0
:1037E000D2E0D8F80010F217C1E90062F6E7D8F885
:1037F00000100E80F2E70E70F0E718F8041B8DF849
:10380000001000208DF80100EB46012003E058F87D
:1038100004BB4FF0FF3061074FF0000701D40AE00E
:103820007F1C57450DDA8742FADB1BF80710002989
:10383000F6D106E07F1C8742FCDB1BF8071000294D
:10384000F8D1DDE90D23A9EB07008146214600F000
:10385000B1F83044C61904E0DDE90D121BF8010B84
:1038600090477F1EF8D22146484688E058F8040B5E
:10387000C4F302514FF00A0B032900D100B204290E
:1038800000D140B2002802DA40422D2102E0210599
:1038900005D52B218DF82410012104E006E0E10775
:1038A00010D02021F6E708AF089113E058F8040B78
:1038B000C4F302514FF00A0B032900D180B204294E
:1038C00000D1C0B20021EEE75946FCF772FC30315E
:1038D00007F8011D0028F7D1ADEB070000F1200B20
:1038E000600702D524F4803401E04FF0010ADA4584
:1038F00002DDAAEB0B0000E00020824600EB0B018A
:1039000008980144A9EB01000A90E00306D4DDE920
:103910000D2321460A9800F04DF806444FF00009A7
:1039200008E009A911F80900DDE90D12904709F135
:103930000109761C08998945F3DBE0030CD5DDE924
:103940000D2321460A9800F035F8064404E0DDE92D
:103950000D1230209047761CBAF10001AAF1010A3D
:10396000F5DC05E0DDE90D1217F8010B9047761C38
:10397000BBF10001ABF1010BF4DC0A982146DDE953
:103980000D2300F005F806446D1C97E60928010098
:103990002DE9F041044600251E461746880404D44C
:1039A00005E039462020B0476D1C641EF9D5284635
:1039B000BDE8F0812DE9F041044600251E46904601
:1039C000C80301D5302700E02027880404D505E08E
:1039D00041463846B0476D1C641EF9D52846BDE8FF
:1039E000F0810A68531C0B6010707047F8B5002016
:1039F0000090C8170D4601EB1060010A8DF8001009
:103A000028468DF8010016466846FFF7D7FC0024CB
:103A100011E004EB440006EB4000611CFFF77BFC67
:103A2000611C0020FFF792FC611C0120FFF7AAFC3B
:103A3000641C642C01DAAC42EBDB0020F8BD000012
:103A400002480021C1708181704700007000002091
:103A500010B50420FEF778FC084809490068B0FB5F
:103A6000F1F00849C0B200EB40020870C2EBC01090
:103A70004FF6FF7202EAC000488010BD4C000020E3
:103A800040420F006C00002070B54FF4E975044609
:103A9000A84203DABDE87040FFF7E8BD4FF4C876EE
:103AA0003046FFF7E3FDA4F5C874AC42F8DAA0B2E3
:103AB000F0E700000B49097848434FF0E0214861E6
:103AC00000238B61086940F0010008610869C207A2
:103AD00001D0C003FAD5086920F0010008618B61AC
:103AE000704700006C0000201CB51448FDF7A6FFCD
:103AF0001349124800F086FF1248FDF793FF114862
:103B0000D022114C41780078303800EB800002EB75
:103B100040000844C0B2207000F0F6FE0B48FDF7EC
:103B200099FF0A492078074B0978054ACDE9000139
:103B300007490020FEF79CF800201CBD0000002073
:103B400030020020080000200B0000200C000020A4
:103B5000284D0008F0B589B00025074604460895B1
:103B60003B488DF820508DF81C508DF82150056091
:103B700038482E460560FF2206212046FCF7E4FA6D
:103B8000E5802581A07A761C20F0FE00A072E07A04
:103B900020F00F00E0726573E5812582A574A4F81A
:103BA0001350A4F815501734642EE4DB08A8FDF771
:103BB00095FF9DF821009DF82010274E00EB012075
:103BC0006428306001DD356000E008B9FDF7E4FAF3
:103BD00022A100203268FEF74BF83C46002530E079
:103BE000691C2046FDF74DFF691C07A8FDF758FF2B
:103BF0009DF81C000128A07A02D020F0010001E00D
:103C000040F00100A072691C04F10C00FDF757FFA1
:103C1000A17A207B01F0010163792279CDE90510B9
:103C2000CDE903236078E278A1788DE80700237856
:103C30006A1C0FA10020FEF71BF817346D1C642DC1
:103C400002DA30688542CBDB09B00020F0BD00000D
:103C500024020020280200201000002076616C69F8
:103C6000644E756D203A256420202020200A000033
:103C700075696425643A20253032782530327825FC
:103C8000303278253032782530327825303278203D
:103C9000202062696E643A2564206368616E6E65F7
:103CA0006C3A25640A000000FDF70EBAFFF7D0FE5B
:103CB000FDF77AFAFDF7D2F9FDF74AFAFCF73EFF75
:103CC000FDF732FAFDF752FEFCF7D8FE4FF46144DF
:103CD000204600F0CFFE204600F03AFF41F61F419B
:103CE00041F28730FEF792FB00F0FCFD2CA1002092
:103CF000FDF7BEFFFFF7F8FE2C48FFF72BFF2C4E19
:103D00002C4FDFF8B4800024DFF8B09000F088FD7D
:103D10002B48FEF713FD307801280FD129A1002090
:103D2000FDF7A6FF2E4A2FA10020FDF7A1FF00F00E
:103D300063FA347031A10020FDF79AFF387801282A
:103D40000AD134A10020FDF793FF00F015FA3C7072
:103D500037A10020FDF78CFF98F8000045460128A8
:103D60000BD13AA10020FDF783FF00F08FFD00B9D1
:103D70002C703CA10020FDF77BFF99F800004D4618
:103D80000128C3D13CA10020FDF772FF00F0A6F886
:103D9000FFF78AFF2C703FA10020FDF769FFB5E710
:103DA000696E6974204F4B200A0000003D0200201C
:103DB0007000002060000020A1010020A20100206E
:103DC000280000205553415254315F526563765F9D
:103DD0004576656E742073746172740A0000000089
:103DE000420B00205553415254315F526563765F58
:103DF0004576656E742025730A00000055534152C4
:103E000054315F526563765F4576656E7420656EEA
:103E1000640A00004B45595F466F726D61745749E3
:103E200046495F4576656E742073746172740A004A
:103E30004B45595F466F726D6174574946495F45FE
:103E400076656E7420656E640A0000005749464925
:103E50005F5253545F4576656E742073746172745B
:103E60000A000000574946495F5253545F45766542
:103E70006E7420656E640A00434F4D4D5F54696D4A
:103E8000656F75745F4576656E74207374617274C6
:103E90000A000000434F4D4D5F54696D656F7574A6
:103EA0005F4576656E7420656E640A000178C2789D
:103EB000303901EB4103C3EBC11102EBC102417880
:103EC00080786423594300EB800001EB40001044EC
:103ED000A0F5A050D03880B2704700002DE9F04F17
:103EE0009C4987B00868002873DD9B4C8B464FF0D7
:103EF00000092268824201DBC4F8009000F090FCC7
:103F00002068964DC0EBC00101EB00104119944EA2
:103F1000C88870809348FDF7F1FA074600F080FCEE
:103F2000DFF844A2DFF84482AFB1A6F80090216820
:103F3000C1EBC10000EB01102844827A22F0380264
:103F40008272027B98F8000082426ED0491CFFF713
:103F500019FAE8B369E02068C0EBC00101EB00107A
:103F60004119887AC0071DD100231A467D48CDF833
:103F700000A0FDF7D3F9074600F052FC012F11D144
:103F800021680120491CFFF7E1F958B92068C0EB0E
:103F9000C00101EB00102844817A21F0380141F082
:103FA0000101817220684FF00052C0EBC00101EBAB
:103FB00000102844817A02EBB1114FEAB161C1F3DC
:103FC000C2028172032A08D321F03801183101E0BE
:103FD00007E0BCE021F0020181723088401C308093
:103FE00050E020680DF1080EC0EBC00101EB001C91
:103FF0000CEB050098F800300179077B42798EE8D8
:104000008E00C2788178CDE90012437815F80C2033
:1040100057490020FDF72CFE206898F80010C0EBEF
:10402000C00202EB0010284401732068C0EBC001FD
:1040300001EB00104119887A42074E48007806D5F6
:1040400078B901F10A0000230222009006E001285D
:1040500007D101F10A000023012200904148FDF739
:10406000AFFB00F0DDFB20687288C0EBC00101EB04
:1040700000102844C188914204D2417BFF2901D21B
:10408000491C417300F0CCFB20684746C0EBC001DF
:1040900001EB0010284498F80010007B88423CD0C7
:1040A00000F032FCCDF800A020680023C0EBC00176
:1040B00001EB001041193A782A48FDF72FF9012841
:1040C00028D121683878491CFFF75CF910BB2068BB
:1040D0000DF1080AC0EBC00101EB001808EB050068
:1040E0003B78017990F80CC042798AE80E10C278CA
:1040F0008178CDE90012437815F808201C4900208A
:10410000FDF7B6FD20683978C0EBC00202EB001065
:1041100028440173387800F0F7FB2068401C2060C9
:104120003088B0F5616F12D34946C4F80090084654
:10413000DBF8002007E0C0EBC00303EB00132B44C7
:10414000401C597320609042F5DB3180216007B03C
:10415000BDE8F08F10000020140000203D02002078
:104160002C020020000000200D0000200B00002089
:10417000C44C00080C00002010B500240CA12046FF
:10418000FDF776FD41F28830FFF77EFC0F48FEF721
:1041900039FE18B1641C032CF8DB03E008210CA0E5
:1041A000FFF723F9BDE810400CA10020FDF760BD2A
:1041B0004B45595F466F726D6174574946495F457B
:1041C00076656E742053746172740A0030020020A8
:1041D0003838383838383838000000004B45595FD7
:1041E000466F726D6174574946495F4576656E74D6
:1041F00020456E640A00000070B588B00024009469
:1042000001947DA00294039404940594069400689C
:1042100007907A4A7A497B48FDF7C0FC7A49002822
:10422000086016D17548774D784E0068062810D280
:10423000DFE800F00F037A94B0CD724B012274A135
:104240000020FDF715FD30681A2804D00120FEF784
:10425000FBFB08B070BD55F80B0F0090686801902B
:10426000A86802909DF801009DF800109DF80420B8
:1042700000EB0110A0F54C708DF810009DF80300C4
:104280009DF8021000EB0111A1F54C718DF8111091
:104290009DF8051001EB0010A0F54C708DF8120090
:1042A0009DF8070000EB0210A0F54C708DF813008C
:1042B0009DF8090000EB0110A0F54C708DF814007A
:1042C0009DF80B009DF80A1000EB0110A0F54C7052
:1042D0008DF8150004A8FEF7D6FF10F0FF0001D0FE
:1042E000FEF7B2FB07A8FEF7B7FF0020FFF796F82E
:1042F0004D49012008700846FEF7DDFF8DF80C409F
:1043000041F28830FFF7C0FB6846FEF77BFDC4B280
:10431000082146A0FFF769F8FFF7E6FB2046FEF705
:1043200093FBFFF7E1FB94E7364B022238A1002014
:10433000FDF79EFC04A8FDF781FB694604A800F088
:1043400061FB9DF810008DF80C40FF28694603D0F2
:104350000020FEF72FFB7CE70120FAE7294B032220
:104360002BA10020FDF784FC287BE97A00EB0110EB
:10437000A0F54C70C4B22046FCF746FDC5B22B46F2
:1043800022462DA10020FDF773FC29462046FEF7AA
:10439000BDFB5EE71B4B04221DA10020FDF768FC5E
:1043A00027A10020FDF764FC30680621113890FB3E
:1043B000F1F1144A2A480E32FFF718FB0020FEF7ED
:1043C00073FB2748FFF7C6FBFCF7DEFE41E70D4B0A
:1043D00005220FA10020FDF74BFC06A8FEF7EEFF1B
:1043E000C4B20020FFF71AF82046FEF7B3FA1C48C3
:1043F000FFF7B0FB2DE70000303100003000002057
:104400002C000020420B0020340000202800002057
:10441000574946495F526563765F4576656E7425F8
:10442000642025730A0000000C000020383838385A
:10443000383838380000000025642025640A000060
:10444000434F4D4D414E445F5345544E4554574F95
:10445000524B2020204D617070696E670A00000089
:104460003D0200202DE9F0478246D0B09C4A9D498C
:104470009D48FDF773FB9D49002808602DD19848A1
:10448000994C9B4D0068DFF86C92DFF86C8204F168
:104490000B0704F11A0607281FD2DFE800F01E04FC
:1044A000214376B3F200904B012294A10020FDF746
:1044B000DFFB0120FDF774FA2870D9F80010954A47
:1044C00095A3CDE902320524CDE900840491034689
:1044D00093A294495046FBF7C1FE50B0BDE8F08767
:1044E000814B022285A10020FDF7C2FB0C228D49E1
:1044F0003846FBF742FE60B18BA10020FDF7B8FB08
:104500000023844A012150B05046BDE8F047FCF733
:104510001FB88EA10020FDF7ABFB7E4A0021D9F821
:104520000030F0E7704B032274A10020FDF7A0FBE0
:104530000C227C493846FBF720FE50B10121504641
:10454000FBF79EFF50B089A1BDE8F0470020FDF7C2
:104550008FBB8F48062100681D3890FBF1F422467E
:104560008CA10020FDF784FB00215046FBF788FF5B
:10457000324621466748FFF739FA6648FFF7EAFAFC
:1045800050B0BDE8F047FCF7FFBD574B04225BA1DC
:104590000020FDF76DFB0C2262493846FBF7EDFD6C
:1045A00040B150B05046BDE8F04700231A46012103
:1045B000FBF704BF608BA8F8000046464E48FEF7A4
:1045C0004BFE0120FDF7ECF9287003464A4A002112
:1045D0005046FBF7F3FE30787178303800EB8000FE
:1045E000D02202EB4000744C0844C0B2207000F0AE
:1045F0008BF9237850B0404ABDE8F0476FA1002006
:10460000FDF736BB384B05223CA10020FDF730FBFF
:104610000C2244493846FBF7B0FD30B150B050464B
:10462000BDE8F0470121FBF75FBF64211BA8FBF742
:1046300092FD642102A8FBF78EFD642134A8FBF7EC
:104640008AFD4EAB02AA4DA91BA80096FDF75DFAA4
:1046500002A94E98CDE900011BAB66A100204D9A3E
:10466000FDF706FB642134A8FDF744FA1BA934A822
:104670004D9AFBF782FD28B102215046FBF734FF2B
:104680002BE70CE000215046FBF72EFF02A8FEF7B7
:1046900071FB4E98C1B202A8FEF7A7FE1DE7124BB0
:1046A000062216A10020FDF7E3FA0C221D49384628
:1046B000FBF763FD30B150B05046BDE8F047012133
:1046C000FBF748BE5549E07D087000215046FBF7D6
:1046D00041FE50B05148BDE8F047FEF7ECBD000088
:1046E0001C000020180000200A0C002020000020E0
:1046F000070000201000002008000020574946490C
:104700005F526563765F4576656E74256420257318
:104710000A0000003D0200205253312E33000000F9
:104720003130310030020020434F4D4D414E445F47
:1047300053595354454D494E464F2020204E6F74D7
:10474000204D617070696E6700000000434F4D4D51
:10475000414E445F53595354454D494E464F2020D6
:104760004D617070696E670A00000000434F4D4D47
:10477000414E445F5345544E4554574F524B2020B1
:10478000204E6F74204D617070696E6700000000EC
:1047900024000020434F4D4D414E445F5345544E3D
:1047A0004554574F524B2020204D617070696E6701
:1047B00020202025640A00000B000020434F4D4DAF
:1047C000414E445F5345544348414E4E454C202092
:1047D0005369676E616C5F4368616E6E656C3A2504
:1047E00073204368616E6E656C5F636861722564F7
:1047F0000A000000434F4D4D414E445F534554570E
:1048000049464950415353574F524420256420256F
:10481000732025642025730A000000000C0000208E
:1048200010B50B490B48FEF74BFB0B4C20780128C9
:104830000DD10AA10020FDF71BFA0548FFF712FE73
:1048400000202070BDE810400AA1FDF711BA10BD8C
:10485000390B0020240000207200002057494649EF
:104860005F526563765F4576656E7420737461721E
:10487000740A0000574946495F526563765F457682
:10488000656E7420656E640A0000000070B5002437
:1048900008A12046FDF7ECF9FEF740FC050002D028
:1048A000641C032CF8DB09A10020FDF7E1F9284680
:1048B00070BD000070726F636573735F574946493E
:1048C0005F5253542053746172740A0070726F63A4
:1048D0006573735F574946495F52535420456E6470
:1048E0000A00000010B545F25550FCF701FC062007
:1048F000FCF7F2FB40F63540FCF7F4FBFCF7E4FB79
:10490000BDE81040FCF7D8BB10B5044611286DD2A5
:104910003748012CA0F180011ED0022C1FD0032C9F
:1049200020D0042C21D0052C22D0062C23D0072CFB
:1049300024D0082C25D0092C26D00A2C27D00B2CCB
:1049400028D00C2C29D00D2C2AD00E2C2BD00F2C9B
:1049500046D0102C47D02CE051F8022F25E051F81A
:104960000A2F22E051F8122F1FE051F81A2F1CE0F5
:1049700051F8222F19E051F82A2F16E051F8322F62
:1049800013E051F83A2F10E051F8422F0DE051F8A2
:104990004A2F0AE051F8522F07E051F85A2F04E04D
:1049A00051F8622F01E051F86A2F40F8532F4968FF
:1049B00041600220FDF7A0FAFCF71EFA0228FBD1A5
:1049C000FDF764FA1020FDF797FAFCF715FA0128B5
:1049D000FBD1224607A10020FDF74AF9002010BDB7
:1049E00051F8722FE1E751F87A2FDEE7012010BD70
:1049F000040100207365744368616E6E656C3A252E
:104A0000640A00000378302202EB13130B70037862
:104A100003F00F0330334B70437802EB13138B70AA
:104A2000437803F00F033033CB70837802EB13131A
:104A30000B71837803F00F0330334B71C37802EBB3
:104A400013138B71C37803F00F033033CB710379E9
:104A500002EB13130B72037903F00F0330334B7225
:104A6000437902EB13128A72407900F00F00303064
:104A7000C8727047F0B50446012187B08803FCF77F
:104A8000EBFB01210420FCF7E7FB2E4E3046FEF73E
:104A90009BF87015ADF8000003258DF80250182022
:104AA000294F8DF8030069463846FCF7FDF83015AC
:104AB000ADF8000004208DF8030069463846FCF785
:104AC000F3F801940024ADF80C400C20ADF8084038
:104AD000ADF80E00ADF80A40ADF8104001A930461F
:104AE000FEF7EAF825208DF814008DF81540022015
:104AF0008DF8160001208DF8170005A8FCF758FB6B
:104B0000012240F225513046FEF7BEF80121304621
:104B1000FEF750F801210820FCF79EFB10208DF8CD
:104B200003008DF80250C402084DADF800406946FC
:104B30002846FCF7B9F821462846FCF70CF907B0DF
:104B4000F0BD00000038014000080140000C0140A9
:104B50002DE9F0418046012186B04804FCF764FB52
:104B600001210420FCF778FB2D4E3046FEF72CF88F
:104B70000424ADF8004003258DF802501820294F79
:104B80008DF8030069463846FCF78EF80820ADF82A
:104B900000008DF8034069463846FCF785F800248C
:104BA000ADF80C400C20ADF80840ADF80E00CDF883
:104BB0000480ADF80A40ADF8104001A93046FEF778
:104BC0007BF826208DF814008DF815408DF81650CE
:104BD00001208DF8170005A8FCF7EAFA012240F23F
:104BE00025513046FEF750F801213046FDF7E2FF2F
:104BF00001210820FCF730FB10208DF803008DF810
:104C00000250C402084DADF8004069462846FCF742
:104C10004BF821462846FCF79EF806B0BDE8F08127
:104C20000044004000080140000C014030313233A4
:104C30003435363738394142434445465465726D00
:104C4000696E616C0000000052464D3330305F48A1
:104C5000656172745F426561742025303278253059
:104C60003278253032782530327825303278253048
:104C70003278202064743A2564207076313A2564B5
:104C8000207076323A25642070693A2564207031AC
:104C90003A25642070323A2564206F743A256420E6
:104CA00068723A25642066733A2564207076316C08
:104CB0006F773A2564207076326C6F773A25640AF4
:104CC000000000006368616E6765204368616E6E76
:104CD000656C2025303278253032782530327825C1
:104CE00030327825303278253032782020436861A0
:104CF0006E6E656C5F636861723A2564202020697E
:104D00006E766572746572496E666F5B6375725319
:104D1000657175656E63655D2E6368616E6E656C49
:104D20003A25640A00000000454355204944203AD2
:104D3000257320202020202020205369676E616C7D
:104D40005F4368616E6E656C3A20202025732020D9
:104D500020202564202020494F5F496E69745F53ED
:104D600074617475733A25780A0000008C4D000850
:104D7000000000203002000004020008C04E0008BD
:104D800030020020A82100005C36000801384502EE
:104D90000406082D010203040415060708098451BE
:104DA00025027914290CB9390114186A4271CE1CF4
:104DB000425B1C1C4298441F4282921E43C0BA119F
:104DC00043AA081143E7301443D17E13430FA716BB
:104DD00043F8F41543361D1943206B18435D931BAC
:104DE0004347E11A4385091E436F571D44AC7F10AA
:104DF0004396CD1F44D3F51244BD431244FB6B15BB
:104E000044E5B9144422E217440C3017444A581AB6
:104E10004433A61944681A44681A44681A44681A44
:104E200045681A4568136932181766D1690C0A9FDC
:104E3000392929C0501453081F90D3641033D13539
:104E4000131A4B13180D280A53080F70A6C9102007
:104E5000A112131A5A1317140553100750200F6686
:104E6000EC1DF0801408910302D0AEE03516F4106A
:104E7000E242206A81D1F9461122B42201131204C0
:104E800063AA0255D42D011F19172360FF161F10A6
:104E9000504D06130F70D58A183F7F600B5345475E
:104EA0004745522052545429412904133C4C1408BC
:104EB0001213122002260439301217033320100077
:04000005080000ED02
:00000001FF
